:100000000C9434000C9449000C9449000C94490061
:100010000C9449000C9449000C9449000C9449003C
:100020000C9449000C9449000C9449000C9449002C
:100030000C9449000C9449000C9449000C9449001C
:100040000C9449000C9449000C9449000C9449000C
:100050000C9449000C9449000C9449000C944900FC
:100060000C9449000C94490011241FBECFEFD8E036
:10007000DEBFCDBF11E0A0E0B1E0EEE1F1E002C0F3
:1000800005900D92A230B107D9F70E944B000C9455
:100090008D000C94000085B78F7E85BF4AB12091FA
:1000A000000181E090E0BC0102C0660F771F2A9535
:1000B000E2F79B01209524232AB92BB1309100014E
:1000C000AC0101C0440F3A95EAF7242B2BB92AB1B1
:1000D0003091010101C0880F3A95EAF7822B8AB965
:1000E00061E070E089B1909101019B0101C0220F94
:1000F0009A95EAF790E04091000102C095958795A6
:100100004A95E2F780FD04C08BB1282B2BB9EACFCA
:0E0110008BB1209528232BB9E5CFF894FFCFB3
:02011E000405D6
:00000001FF
