:100000000C9434000C9451000C9451000C94510049
:100010000C9451000C9451000C9451000C9451001C
:100020000C9451000C9451000C9451000C9451000C
:100030000C9451000C9451000C9451000C945100FC
:100040000C945B000C9451000C9451000C945100E2
:100050000C9451000C9451000C9451000C945100DC
:100060000C9451000C94510011241FBECFEFD8E026
:10007000DEBFCDBF11E0A0E0B1E0E2EBF6E002C0F0
:1000800005900D92AC32B107D9F721E0ACE2B1E0B6
:1000900001C01D92AF37B207E1F70E94ED010C9449
:1000A00057030C9400002A9A8FE99FE00197F1F71B
:1000B00000C0000008951F920F920FB60F921124F6
:1000C0008F939F9380917D0190917E0102969093F2
:1000D0007E0180937D0180912C0180932C01809181
:1000E0002C018D3770F080912C018D5780932C015D
:1000F00080917D0190917E01019690937E01809385
:100100007D019F918F910F900FBE0F901F901895BA
:100110002FEF86E791E0215080409040E1F700C04A
:1001200000008FEF8AB984B1876084B90895811186
:1001300008C08FE99FE00197F1F700C000002A98FE
:1001400008950C945300882359F0289A61110BC02C
:1001500029988FE99FE00197F1F700C0000008950A
:1001600028986623A9F3299A8FE99FE00197F1F770
:1001700000C0000008951F93CF93DF93182FD62F50
:10018000C42F289829988FE99FE00197F1F700C0C4
:1001900000000E94530080E28BB911115C9AD111CA
:1001A0005B9AC1115A9A8FE99FE00197F1F700C05D
:1001B00000002A98DF91CF911F9108951F93CF934C
:1001C000DF93182FD62FC42F289829988FE99FE006
:1001D0000197F1F700C000000E94530088E08BB93E
:1001E00011115A9AD111599AC111589A8FE99FE069
:1001F0000197F1F700C000002A98DF91CF911F917D
:100200000895CF93DF93D82FC62F289829988FE988
:100210009FE00197F1F700C000000E94530084E0C6
:100220008BB9D111599AC111589A8FE99FE0019762
:10023000F1F700C000002A98DF91CF910895289827
:1002400029988FE99FE00197F1F700C000000E9414
:10025000530081E08BB98FE99FE00197F1F700C06F
:1002600000002A980895CF93DF93D82FC62F28989F
:1002700029988FE99FE00197F1F700C000000E94E4
:10028000530080E18BB9D1115B9AC1115A9A8FE961
:100290009FE00197F1F700C000002A98DF91CF910D
:1002A0000895289829988FE99FE00197F1F700C0F9
:1002B00000000E94530082E08BB98FE99FE0019714
:1002C000F1F700C000002A980895CF93C82F289A0C
:1002D00029988FE99FE00197F1F700C000000E9484
:1002E0005300CBB98FE99FE00197F1F700C0000000
:1002F0002A98CF910895289A299A8FE99FE001972B
:10030000F1F700C000000E9453001AB889B1EFE96C
:10031000FFE03197F1F700C000002A989FEF9AB9EB
:100320001BB80895CF93C82F289829988FE99FE08C
:100330000197F1F700C000000E94530080E48BB9E0
:100340008BB18C2B8BB98FE99FE00197F1F700C03F
:1003500000002A98CF910895CF93C82F2898299804
:100360008FE99FE00197F1F700C000000E94530061
:1003700080E88BB98BB18C2B8BB98FE99FE001970B
:10038000F1F700C000002A98CF9108952898299A83
:100390008FE99FE00197F1F700C000000E94530031
:1003A0001AB889B1EFE9FFE03197F1F700C000001A
:1003B0002A989FEF9AB91BB808952FEF86E791E02E
:1003C000215080409040E1F700C000008FEF8AB9D3
:1003D00084B1876084B9789408952FEF86E791E01F
:1003E000215080409040E1F700C000008FEF8AB9B3
:1003F00084B1876084B9789441E061E081E00E9433
:10040000DE0040E061E081E00E94BB0060E081E04E
:100410000E9401010E941F01EFEFF9E628E1E1507F
:10042000F0402040E1F700C0000080E00E94AC01F5
:100430008BE0E0E0F1E0ADE2B1E001900D928A9551
:10044000E1F7CDE2D1E08E0105C0F80181918F0185
:100450000E946501FE0101900020E9F7CF018E5254
:10046000914098012D5231402817390770F3FFEF62
:1004700029E688E1F15020408040E1F700C000000B
:1004800080E40E94AC018BE0EBE0F1E0ADE2B1E092
:1004900001900D928A95E1F70DE211E005C0F80197
:1004A00081918F010E946501FE0101900020E9F712
:1004B000CF018E52914098012D52314028173907B3
:1004C00070F3FFEF29E688E1F15020408040E1F72A
:1004D00000C0000084E10E94AC018BE0E6E1F1E0A5
:1004E000ADE2B1E001900D928A95E1F70DE211E0E5
:1004F00005C0F80181918F010E946501FE01019004
:100500000020E9F7CF018E52914098012D523140E1
:100510002817390770F3FFEF29E688E1F1502040F2
:100520008040E1F700C0000084E50E94AC018BE050
:10053000E1E2F1E0ADE2B1E001900D928A95E1F7E0
:100540000DE211E005C0F80181918F010E94650163
:10055000FE0101900020E9F7CF018E5291409801F1
:100560002D5231402817390770F3FFEF27EA81E653
:10057000F15020408040E1F700C000000E941F01C0
:10058000C4E1D0E080E30E9465019FEFE1EEF4E07A
:100590009150E040F040E1F700C00000219791F752
:1005A000C4E1D0E081E30E9465012FEF81EE94E089
:1005B000215080409040E1F700C00000219791F762
:1005C000C4E1D0E082E30E946501EFEFF1EE24E0A8
:1005D000E150F0402040E1F700C00000219791F782
:1005E000C4E1D0E083E30E9465018FEF91EEE4E087
:1005F00081509040E040E1F700C00000219791F762
:10060000FFEF23ED80E3F15020408040E1F700C090
:10061000000080E00E94920185E10E9465018AE865
:100620000E94650185E10E9465018AE80E946501DA
:1006300085E10E9465018AE80E94650185E10E94CA
:1006400065018AE80E94650188E00E9492018AE8BB
:100650000E94650185E10E9465018AE80E946501AA
:1006600085E10E9465018AE80E94650185E10E949A
:1006700065018AE80E94650185E10E9465010E948A
:100680001F0180E00E94AC01C8E2D0E080E00E943F
:10069000650181E00E9465012197C1F7A89583B7A4
:1006A000816083BF889583B78E7F83BFF7CFF8942F
:0206B000FFCF7A
:1006B2003053696D6F6E20517565003153696D6FEE
:1006C2006E20517565003253696D6F6E20517565EC
:0C06D200003353696D6F6E205175650098
:00000001FF
