S013000068656C6C6F5F776F726C642E7372656376
S11300000C9434000C9449000C9449000C9449005D
S11300100C9449000C9449000C9449000C94490038
S11300200C9449000C9449000C9449000C94490028
S11300300C9449000C9449000C9449000C94490018
S11300400C9449000C9449000C9449000C94490008
S11300500C9449000C9449000C9449000C944900F8
S11300600C9449000C94490011241FBECFEFD8E032
S1130070DEBFCDBF11E0A0E0B1E0E8E0F1E002C0F6
S113008005900D92A230B107D9F70E944B000C9451
S113009082000C94000084B19091000121E030E0D2
S11300A001C0220F9A95EAF7822B84B921E030E04F
S11300B085B190910001A90101C0440F9A95EAF716
S11300C0842B85B94FEF69E678E141506040704078
S11300D0E1F700C0000045B180910001B90102C000
S11300E0660F771F8A95E2F7CB018095842385B943
S11300F07FEF83ED90E3715080409040E1F700C0C2
S10B01000000D6CFF894FFCFF4
S10501080500EC
S9030000FC
