S013000068656C6C6F5F776F726C642E7372656376
S11300000C9434000C9446000C9446000C94460066
S11300100C9446000C9446000C9446000C94460044
S11300200C9446000C9446000C9446000C94460034
S11300300C9446000C9446000C9446000C94460024
S11300400C9446000C9446000C9446000C94460014
S11300500C9446000C9446000C9446000C94460004
S11300600C9446000C94460011241FBECFEFD8E038
S1130070DEBFCDBF21E0A0E0B1E001C01D92A13000
S1130080B207E1F70E9448000C9478000C94000039
S113009085E080930001559A21E030E08BB1909186
S11300A00001A90101C0440F9A95EAF7842B8BB98A
S11300B04FEF69E678E1415060407040E1F700C0DD
S11300C000004BB180910001B90102C0660F771F97
S11300D08A95E2F7CB01809584238BB97FEF83ED7A
S11300E090E3715080409040E1F700C00000D6CF0B
S10700F0F894FFCFAE
S9030000FC
