S00C000064656D6F2E7372656373
S11300000C9434000C9451000C9451000C94510045
S11300100C9451000C9451000C9451000C94510018
S11300200C9451000C9451000C9451000C94510008
S11300300C9451000C9451000C9479000C945100D0
S11300400C9451000C9451000C949D000C9451009C
S11300500C9451000C9451000C9451000C945100D8
S11300600C9451000C94510011241FBECFEFD8E022
S1130070DEBFCDBF11E0A0E0B1E0EAE0F6E002C0EF
S113008005900D92AC30B107D9F721E0ACE0B1E0B6
S113009001C01D92A23EB207E1F70E94B1020C9486
S11300A003030C9453001F920F920FB60F92112466
S11300B02F933F934F935F936F937F938F939F936C
S11300C0AF93BF93EF93FF9389E491E00E941502ED
S11300D0FF91EF91BF91AF919F918F917F916F911C
S11300E05F914F913F912F910F900FBE0F901F90F2
S11300F018951F920F920FB60F9211242F933F93CE
S11301004F935F936F937F938F939F93AF93BF931B
S1130110EF93FF930E944B02FF91EF91BF91AF9138
S11301209F918F917F916F915F914F913F912F910B
S11301300F900FBE0F901F9018951F920F920FB63D
S11301400F9211242F933F934F935F936F937F9359
S11301508F939F93AF93BF93EF93FF930E943801C4
S1130160FF91EF91BF91AF919F918F917F916F918B
S11301705F914F913F912F910F900FBE0F901F9061
S113018018950F931F93CF93DF93E0E5F1E004E21A
S113019010E011830083C5E2D0E0D383C28385E0FD
S11301A08683CF010E949F01E9E4F1E0118300837B
S11301B0D383C28381E08683CF010E949F0189E4B7
S11301C091E0DF91CF911F910F910C9427029093AE
S11301D0C5008093C400E1ECF0E0808180688083F6
S11301E0808188618083E2ECF0E080818660808396
S11301F08081886080830895FC0190816150710939
S1130200961717061CF49F5F908308951082089533
S1130210E62FF0E0282F30E0861738F4842F90E0A2
S11302208E1B9F0B820F931F0895C9018E1B9F0B7A
S113023008959091C00095FFFCCF8093C600089567
S11302406115710569F0FC01680F791F9191809126
S1130250C00085FFFCCF9093C600E617F707B1F7FF
S113026008958091C00087FFFCCF8091C600089557
S11302708091C600809391019091C00094FF0EC0BC
S113028090919001E92FF0E0E455FE4F80838A308D
S113029049F0913320F49F5F909390010895109258
S11302A09001089581E0809392019133A0F3F7CFF8
S11302B0CF93DF93EB01E0918F0120919001E2173E
S11302C0D9F0DC010CC010928F01E0E088819981A3
S11302D0019699838883809190018E1769F0F0E0EC
S11302E0E455FE4F80818D93E0918F01E13358F7FF
S11302F0EF5FE0938F01EACFDF91CF910895E09112
S11303008E0180915B018E17A9F0F0E0E45AFE4F54
S113031090818091C00085FFFCCF9093C600E0914E
S11303208E01E13340F010928E01E0E080915B0198
S11303308E13EBCF0895EF5FE0938E01E2CFDC01E3
S1130340ED91FC911197908116968C9121E030E00B
S113035001C0220F8A95EAF7892F822B80830895A2
S1130360DC01ED91FC911197208116963C9181E07E
S113037090E001C0880F3A95EAF780958223808344
S11303800895FC01A081B1818C91968141E050E0F7
S11303909A0101C0220F9A95EAF7209528232C93FD
S11303A0A281B3818C91968101C0440F9A95EAF79A
S11303B0482B4C930895DC01ED91FC9111979081A9
S11303C016968C9121E030E001C0220F8A95EAF75D
S11303D0892F822780830895DC011496ED91FC9186
S11303E01597208130E016968C91F90102C0F5959D
S11303F0E7958A95E2F7CF0181700895DC011296A2
S1130400ED91FC91139716962C9181E090E001C038
S1130410880F2A95EAF79081611104C08095892399
S113042080830895892B80830895DC011296ED91D1
S1130430FC911397908116968C9121E030E001C0D5
S1130440220F8A95EAF7892F822B80830895DC0195
S11304501296ED91FC911397208116963C9181E0C0
S113046090E001C0880F3A95EAF780958223808353
S11304700895DC011296ED91FC91139790811696E4
S11304808C9121E030E001C0220F8A95EAF7892F90
S11304908227808308958091DE019091DF01A091ED
S11304A0E001B091E1010196A11DB11D8093DE012F
S11304B09093DF01A093E001B093E10108951092BD
S11304C0DE011092DF011092E0011092E10114BCF0
S11304D015BC84B5826084BD85B5836085BD89EF14
S11304E087BD18BCEEE6F0E080818260808378945A
S11304F008952FB7F8946091DE017091DF01809127
S1130500E0019091E1012FBF08950F931F938FB7DE
S1130510F8942091DE013091DF014091E001509187
S1130520E101E6B5A99B06C0E93F20F42F5F3F4FE8
S11305304F4F5F4F78948FBFA8EEB3E00E94E9025B
S11305402E2F30E0220F331F220F331F8901330F68
S1130550220B330B600F711F821F931F1F910F918A
S113056008950E94C10087E690E00E94E7000E947F
S11305705F0281E60E94190182E60E94190183E666
S11305800E94190184E60E9419018AE00E9419015F
S11305906BE070E080E091E00E94200180E591E052
S11305A00E9415022FEF89E698E121508040904087
S11305B0E1F700C0000080E591E00E9427022FEFE0
S11305C089E698E1215080409040E1F700C00000A6
S11305D0E5CF0E94F402A59F900DB49F900DA49FB7
S11305E0800D911D11240895A29FB001B39FC001F5
S11305F0A39F700D811D1124911DB29F700D811D4B
S10D06001124911D0895F894FFCF12
S10F060A68656C6C6F776F726C64410063
S9030000FC
