:100000000C9434000C9451000C9451000C94510049
:100010000C9451000C9451000C9451000C9451001C
:100020000C9451000C9451000C9451000C9451000C
:100030000C9451000C9451000C9451000C945100FC
:100040000C946C000C9451000C94DE000C94510044
:100050000C9451000C9451000C9451000C945100DC
:100060000C9451000C94510011241FBECFEFD8E026
:10007000DEBFCDBF11E0A0E0B1E0E0E3F6E002C0FA
:1000800005900D92AE31B107D9F721E0AEE1B1E0B4
:1000900001C01D92AD3AB207E1F70E9443010C94F2
:1000A00016030C940000FC012081222369F03DE03E
:1000B0002A3059F081919091C00095FFFCCF809338
:1000C000C60020812111F4CF08958091C00085FFE2
:1000D000FCCF3093C600EECF1F920F920FB60F9257
:1000E00011248F939F938091A6019091A70101966F
:1000F0009093A7018093A601809157019091580198
:100100000196909358018093570180915A018D5F19
:1001100080935A0180915A018D3770F080915A0175
:100120008D5780935A018091A6019091A701019665
:100130009093A7018093A6019F918F910F900FBE7E
:100140000F901F9018958091A6019091A701089596
:100150002091570130915801A89B05C086B5823384
:1001600010F42F5F3F4F96B5322F2227330F330FF6
:10017000892F90E0880F991F880F991F820F931F76
:100180000895FC01908161507109961717061CF4BF
:100190009F5F9083089510820895E62FF0E0282F46
:1001A00030E0861738F4842F90E08E1B9F0B820F6F
:1001B000931F0895C9018E1B9F0B08951F920F92E4
:1001C0000FB60F9211242F938F939F93EF93FF936A
:1001D0008091C600809355019091C00094FD11C09C
:1001E00021E02093AA0190915401E92FF0E0EC580E
:1001F000FE4F80838A3091F0913368F49F5F909333
:100200005401FF91EF919F918F912F910F900FBE0D
:100210000F901F90189510925401F3CF209359011D
:10022000913360F3F8CF539A84B5806884BD84B568
:10023000816084BD85B5836085BDEEE6F0E0808198
:1002400081608083E0EBF0E0808180628083808148
:1002500081608083E1EBF0E0808184608083E0EC6A
:10026000F0E0808182608083E1ECF0E08081886949
:100270008083E2ECF0E08081866080838FEC809365
:10028000C400789408950E94130180E091E00E94D8
:10029000530085E080935601CAE004C08091560166
:1002A0008093B400809159018823C1F310925901C1
:1002B0002091540190911E01809153012817D9F08B
:1002C000E92FF0E0E55AFE4FA82FB0E0AC58BE4F42
:1002D0003C913083813358F09F5F222359F1E92FFD
:1002E000F0E0E55AFE4F80917401808380E08F5FDB
:1002F0009F5F2813E5CF90931E01809353018CE0FC
:1003000091E00E9453008BE591E00E9453004AE087
:1003100050E070E060E08BE591E00E949C0160930A
:10032000560110921E018091C00085FFFCCFC09342
:10033000C600B4CF80E0DFCFB0E0A0E0E2EAF1E0B9
:100340000C94D1025C016B017A016115710519F001
:10035000FB0191838083E114F10449F0C701029706
:10036000839728F060E070E0CB019CC05E01E5015E
:100370002196F5011081812F90E00E948702892B40
:10038000A9F71D3209F056C02196F501118101E04F
:10039000E114F10409F4AEC0F0E1EF16F10409F044
:1003A0008EC0103341F488818F7D883509F083C079
:1003B000198122960260E0E1EE2EF12C88248A94C5
:1003C000982CA82CFFE0BF2E20E060E070E0CB016D
:1003D00027010F2C000C66087708FE0150ED352E22
:1003E000310E39E0331538F43FEB310F3A31A0F5D7
:1003F00049EC342E310E3E141F04BCF52F3FB9F0EA
:1004000086169706A806B90670F1A30192010E940C
:100410009302232D30E050E040E0620F731F841FF1
:10042000951F6217730784079507E8F021E021966E
:100430001081D3CF1B3221F4E5012296F501118101
:1004400000E0A6CF78E0E72EF12C88248A94982C3F
:10045000A82C6FE1B62EB8CF3FE9310F3A3128F41E
:1004600039EA332EC7CF2FEFE2CFC114D10431F0D8
:100470002223E9F02197F601D183C08300FF07C052
:1004800090958095709561957F4F8F4F9F4F2F3F2F
:1004900049F482E290E09093AC018093AB016FEF5E
:1004A0007FEFCB01CDB7DEB7E1E10C94ED0201FFA8
:1004B000E5CF2297E0CF10E3E114F10419F23AE01E
:1004C000E316F104E9F080E1E816F10409F473CFD2
:1004D000E8E0EE16F10409F4B8CF6FEF7FEFCB013F
:1004E00097010F2C000C440B550B0E94A3024901ED
:1004F0005A016ACF103309F456CF9AE0E92EF12C55
:1005000089E9882E982CA82C89E1B82E5DCF91110D
:100510000C949002803219F089508550C8F70895E4
:10052000992788270895DB018F939F930E94C50226
:10053000BF91AF91A29F800D911DA39F900DB29F7F
:10054000900D11240895A1E21A2EAA1BBB1BFD01D8
:100550000DC0AA1FBB1FEE1FFF1FA217B307E407A2
:10056000F50720F0A21BB30BE40BF50B661F771FFA
:10057000881F991F1A9469F76095709580959095DA
:100580009B01AC01BD01CF0108950E940703A59F07
:10059000900DB49F900DA49F800D911D112408957E
:1005A0002F923F924F925F926F927F928F929F9283
:1005B000AF92BF92CF92DF92EF92FF920F931F9371
:1005C000CF93DF93CDB7DEB7CA1BDB0B0FB6F89422
:1005D000DEBF0FBECDBF09942A88398848885F8462
:1005E0006E847D848C849B84AA84B984C884DF80D3
:1005F000EE80FD800C811B81AA81B981CE0FD11DB7
:100600000FB6F894DEBF0FBECDBFED010895A29FD7
:10061000B001B39FC001A39F700D811D1124911DD6
:10062000B29F700D811D1124911D0895F894FFCF84
:1006300068656C6C6F776F726C6441007561727481
:0E0640005F72785F737472696E673A20000013
:00000001FF
