S00C000064656D6F2E7372656373
S11300000C9434000C9446000C9446000C94460066
S11300100C9446000C9446000C9446000C94460044
S11300200C9446000C9446000C9446000C94460034
S11300300C9446000C9446000C9448000C94460022
S11300400C9446000C9446000C9446000C94460014
S11300500C9446000C9446000C9446000C94460004
S11300600C9446000C94460011241FBECFEFD8E038
S1130070DEBFCDBF21E0A0E0B1E001C01D92AF3CE6
S1130080B207E1F70E943A020C9497020C94000024
S11300901F920F920FB60F9211242F933F934F93F9
S11300A05F936F937F938F939F93AF93BF93EF93DC
S11300B0FF930E94D401FF91EF91BF91AF919F9163
S11300C08F917F916F915F914F913F912F910F90FD
S11300D00FBE0F901F901895EDE3F1E084E290E0DD
S11300E09183808385E290E09383828385E0868395
S11300F0CF010C9428019093C5008093C400E1ECD7
S1130100F0E0808188618083E2ECF0E080818660A9
S113011080838081886080830895FC019081615090
S11301207109961717061CF49F5F90830895108237
S11301300895E62FF0E0282F30E0861738F4842F56
S113014090E08E1B9F0B820F931F0895C9018E1B95
S11301509F0B08959091C00095FFFCCF8093C6003B
S11301600895FC0181919091C00095FFFCCF80938C
S1130170C600F8CF8091C00087FFFCCF8091C600F5
S113018008958091C60080937E019091C00094FFF1
S11301900EC090917D01E92FF0E0E756FE4F808379
S11301A08A3049F0913320F49F5F90937D01089544
S11301B010927D01089581E080937F019133A0F333
S11301C0F7CFCF93DF93EB01E0917C0120917D0188
S11301D0E217D9F0DC010CC010927C01E0E08881C8
S11301E0998101969983888380917D018E1769F0A6
S11301F0F0E0E756FE4F80818D93E0917C01E1337E
S113020058F7EF5FE0937C01EACFDF91CF91089537
S1130210E0917B01809148018E17A9F0F0E0E75B43
S1130220FE4F90818091C00085FFFCCF9093C60063
S1130230E0917B01E13340F010927B01E0E080919A
S113024048018E13EBCF0895EF5FE0937B01E2CF7B
S1130250DC01ED91FC911197908116968C9121E02F
S113026030E001C0220F8A95EAF7892F822B808320
S11302700895DC01ED91FC911197208116963C9133
S113028081E090E001C0880F3A95EAF780958223D7
S113029080830895FC01A081B1818C91968141E015
S11302A050E09A0101C0220F9A95EAF7209528237D
S11302B02C93A281B3818C91968101C0440F9A95AD
S11302C0EAF7482B4C930895DC01ED91FC911197CA
S11302D0908116968C9121E030E001C0220F8A951E
S11302E0EAF7892F822780830895DC011496ED9123
S11302F0FC911597208130E016968C91F90102C08B
S1130300F595E7958A95E2F7CF0181700895DC01B0
S11303101296ED91FC91139716962C9181E090E042
S113032001C0880F2A95EAF79081611104C0809575
S1130330892380830895892B80830895DC01129694
S1130340ED91FC911397908116968C9121E030E009
S113035001C0220F8A95EAF7892F822B80830895A2
S1130360DC011296ED91FC911397208116963C9135
S113037081E090E001C0880F3A95EAF780958223E6
S113038080830895DC011296ED91FC91139790817E
S113039016968C9121E030E001C0220F8A95EAF78D
S11303A0892F8227808308958091CB019091CC017D
S11303B0A091CD01B091CE010196A11DB11D8093F4
S11303C0CB019093CC01A093CD01B093CE010895BD
S11303D01092CB011092CC011092CD011092CE015B
S11303E014BC15BC84B5826084BD85B5836085BDAD
S11303F089EF87BD18BCEEE6F0E0808182608083DF
S1130400789408952FB7F8946091CB017091CC0142
S11304108091CD019091CE012FBF08950F931F932A
S11304208FB7F8942091CB013091CC014091CD014C
S11304305091CE01E6B5A99B06C0E93F20F42F5F99
S11304403F4F4F4F5F4F78948FBFA8EEB3E00E94A9
S11304507D022E2F30E0220F331F220F331F89011C
S1130460330F220B330B600F711F821F931F1F91D9
S11304700F91089584E290E090933E0180933D01B2
S113048085E290E09093400180933F0185E0809362
S113049043018DE391E00E94280187E690E00E94E9
S11304A07B000E94E80181E60E94AA0082E60E9485
S11304B0AA0083E60E94AA0084E60E94AA0080E0C3
S11304C00E94AA008DE391E00E949E012FEF89E62D
S11304D098E1215080409040E1F700C000008DE396
S11304E091E00E94B0012FEF89E698E1215080400D
S11304F09040E1F700C00000E5CF0E948802A59F6C
S1130500900DB49F900DA49F800D911D112408950A
S1130510A29FB001B39FC001A39F700D811D112440
S1130520911DB29F700D811D1124911D0895F894A1
S1050530FFCFF7
S9030000FC
