S00C000064656D6F2E7372656373
S11300000C9434000C9451000C9451000C94510045
S11300100C9451000C9451000C9451000C94510018
S11300200C9451000C9451000C9451000C94510008
S11300300C9451000C9451000C9451000C945100F8
S11300400C9453000C9451000C9435010C94510001
S11300500C9451000C9451000C9451000C945100D8
S11300600C9451000C94510011241FBECFEFD8E022
S1130070DEBFCDBF11E0A0E0B1E0E0E4FCE002C0EF
S113008005900D92AA33B107D9F722E0AAE3B1E0B3
S113009001C01D92A930B207E1F70E946A010C94D5
S11300A01E060C9400001F920F920FB60F9211249B
S11300B08F939F93AF93BF9380917B0190917C0129
S11300C0A0917D01B0917E010196A11DB11D809387
S11300D07B0190937C01A0937D01B0937E0180917C
S11300E07801909179010196909379018093780138
S11300F080917A018D5F80937A0180917A018D37A6
S1130100C0F080917A018D5780937A0180917B01B0
S113011090917C01A0917D01B0917E010196A11D79
S1130120B11D80937B0190937C01A0937D01B093DA
S11301307E01BF91AF919F918F910F900FBE0F9051
S11301401F90189560917B0170917C0180917D01D5
S113015090917E0108956091780170917901A89B36
S113016005C086B5823310F46F5F7F4F86B5762F56
S11301706627770F770F90E0880F991F880F991FD4
S1130180680F791F90E080E00895539A84B58068E1
S113019084BD84B5816084BD85B5836085BDEEE68C
S11301A0F0E0808181608083E0EBF0E08081806218
S11301B08083808181608083E1EBF0E080818460D2
S11301C080830E94E50078940895E0ECF0E080815B
S11301D082608083E1ECF0E0808188698083E2ECD6
S11301E0F0E08081866080838FEC8093C400089562
S11301F0FC01908161507109961717061CF49F5FEA
S11302009083089510820895E62FF0E0282F30E0BF
S1130210861738F4842F90E08E1B9F0B820F931F58
S11302200895C9018E1B9F0B08959091C00095FFFE
S1130230FCCF8093C6000895FC012081222369F03D
S11302403DE02A3059F081919091C00095FFFCCF98
S11302508093C60020812111F4CF08958091C000BD
S113026085FFFCCF3093C600EECF1F920F920FB6DE
S11302700F9211242F938F939F93EF93FF93809169
S1130280C6008093BA019091C00094FD11C021E092
S1130290209383019091B901E92FF0E0EB52FE4FD6
S11302A080838A3091F0913368F49F5F9093B90111
S11302B0FF91EF919F918F912F910F900FBE0F900F
S11302C01F9018951092B901F3CF2093BB0191337D
S11302D060F3F8CF0E94C50080E091E00E941C0109
S11302E085E0809377010DE111E0FCE3FF2ECBE381
S11302F0D1E004C0809177018093B4008091BB0168
S11303008823C1F31092BB01E091B8018091B90137
S1130310E817D1F080913A01A82FB0E0A454BE4F61
S1130320F0E0EB52FE4F90819C938F5F80933A01F3
S113033062E370E088EB91E00E94F800E091B8017C
S11303408091B901E813E6CF8CE091E00E941C0192
S11303508CEB91E00E941C014AE050E070E060E008
S11303608CEB91E00E94F6016093770110923A01C0
S11303708AE00E9415018091780190917901A89BEF
S113038004C026B5223308F4019626B540917B01BA
S113039050917C0160917D0170917E01982F882796
S11303A0990F990F30E0220F331F220F331F820F52
S11303B0931F1F921F929F938F937F936F935F93CB
S11303C04F931F930F931F92FF92DF93CF930E943B
S11303D0EA028BE391E00E941C018DB79EB70E9652
S11303E00FB6F8949EBF0FBE8DBF84CFB0E0A0E0DF
S11303F0ECEFF1E00C94D9055C016B017A01611515
S1130400710519F0FB0191838083E114F10449F033
S1130410C7010297839728F060E070E0CB019CC08D
S11304205E01E5012196F5011081812F90E00E9483
S1130430E102892BA9F71D3209F056C02196F50176
S1130440118101E0E114F10409F4AEC0F0E1EF160A
S1130450F10409F08EC0103341F488818F7D883512
S113046009F083C0198122960260E0E1EE2EF12C9E
S113047088248A94982CA82CFFE0BF2E20E060E00A
S113048070E0CB0127010F2C000C66087708FE01F1
S113049050ED352E310E39E0331538F43FEB310F82
S11304A03A31A0F549EC342E310E3E141F04BCF54C
S11304B02F3FB9F086169706A806B90670F1A30176
S11304C092010E949B05232D30E050E040E0620F32
S11304D0731F841F951F6217730784079507E8F03D
S11304E021E021961081D3CF1B3221F4E50122961D
S11304F0F501118100E0A6CF78E0E72EF12C8824E5
S11305008A94982CA82C6FE1B62EB8CF3FE9310F0E
S11305103A3128F439EA332EC7CF2FEFE2CFC11492
S1130520D10431F02223E9F02197F601D183C0836D
S113053000FF07C090958095709561957F4F8F4F10
S11305409F4F2F3F49F482E290E0909308028093FA
S113055007026FEF7FEFCB01CDB7DEB7E1E10C947B
S1130560F50501FFE5CF2297E0CF10E3E114F10494
S113057019F23AE0E316F104E9F080E1E816F10437
S113058009F473CFE8E0EE16F10409F4B8CF6FEF85
S11305907FEFCB0197010F2C000C440B550B0E94ED
S11305A0AB0549015A016ACF103309F456CF9AE0DA
S11305B0E92EF12C89E9882E982CA82C89E1B82EF3
S11305C05DCF91110C94F404803219F08950855058
S11305D0C8F70895AEE0B0E0E0EFF2E00C94E60571
S11305E00D891E898F89988D26E02C831A830983AF
S11305F097FF02C080E090E801979E838D83AE014F
S1130600455E5F4F698D7A8DCE0101960E941A0373
S11306104D815E8157FD0AC02F81388542175307EB
S11306200CF49A01020F131FF80110822E96E4E0D5
S11306300C940206ABE0B0E0E0E2F3E00C94D805E1
S11306407C013B018A01FC0117821682838181FFB0
S1130650C8C1CE0101965C01F7019381F30193FDBA
S1130660859193FF81913F01882309F453C1853219
S113067039F493FD859193FF81913F01853229F4EB
S1130680B70190E00E940D05E7CF912C212C312C6D
S1130690FFE1F31538F08B3211F190F4803209F157
S11306A0833229F137FC3CC020ED280F2A3050F565
S11306B036FE20C08AE0989E200D1124922E06C09A
S11306C08D3291F0803371F7689430F8F30193FD23
S11306D0859193FF81913F018111DACF21C0689404
S11306E031F8689432F8F2CF689433F8EFCF689415
S11306F034F8ECCFEAE02E9E200D1124222E6894CB
S113070035F8E4CF8E3229F436FC04C1689436F807
S1130710DDCF8C3619F4689437F8D8CF8836B1F227
S1130720982F9F7D95549330E0F08336A1F1833761
S1130730C1F1833509F063C02801F2E04F0E511C6A
S1130740F801C080D180692D70E036FC02C06FEFE3
S11307507FEFC6010E94F7044C01689437F88201C8
S11307600AC00C5F1F4FFFE3F98388248394912C04
S11307706501E89437F833FE2DC0522C811491049E
S113078071F5552009F468CFB70180E290E00E942A
S11307900D055A94F6CFF801808189830E5F1F4FAF
S11307A0E4CF2801F2E04F0E511CF801C080D18043
S11307B0692D70E036FC02C06FEF7FEFC6010E9426
S11307C002054C018201D5CFB70180E290E00E947E
S11307D00D052A942814190409F0B0F7CECFF601B8
S11307E037FC859137FE81916F01B70190E00E943B
S11307F00D0551105A94F1E08F1A9108BFCF843639
S113080019F0893609F077C0F80137FE6BC06081B2
S11308107181828193810C5F1F4FF32DFF763F2EF0
S113082097FF09C090958095709561957F4F8F4F84
S11308309F4F689437F82AE030E0A5010E943D05F7
S1130840C82ECA188C2C432C36FE0CC0E89440F8F1
S1130850C91440F434FE05C032FC03C0F32DFE7EFF
S11308604F2E892C44FE95C0FE01EC0DF11D8081B4
S1130870803309F087C0242D297E422E842D887070
S1130880582E43FC95C040FE8FC09C2C821418F453
S11308902C0C922C981844FE91C0B70180E390E090
S11308A00E940D0542FE09C088E790E041FE02C0A7
S11308B088E590E0B7010E940D05C91408F48AC0C8
S11308C0CA94D12C9FEFC91AD90ACA0CDB1CF601B1
S11308D082916F01B70190E00E940D05AC14BD0434
S11308E0B1F74FCF60817181072E000C880B990BF3
S11308F00E5F1F4F92CFD32CE894D4F82AE030E057
S1130900853739F1232D297FD22E8F3601F148F412
S11309108835A9F0F701868197812B96E2E10C9442
S1130920F405803749F08837A9F7D4FE02C06894EB
S1130930D2F820E130E00DC06894D4F8F6CF34FE4C
S113094003C0822F8660D82E20E132E002C028E066
S113095030E0F801D7FE0FC06081718182819381FC
S11309600C5F1F4FA5010E943D05C82ECA183D2CDF
S1130970E89437F867CF6081718190E080E00E5F82
S11309801F4FF0CF42FC02C0839478CF83948394AA
S113099075CF842D867809F471CFF6CFB70180E244
S11309A090E00E940D0583948214C0F3512C73CF00
S11309B0522C5818821408F46ECFF8CF842D867800
S11309C009F47BCF8BE241FE80E247FC8DE2B70164
S11309D090E071CFB70180E390E00E940D059A94F6
S11309E06CCF8FEF9FEF99CF992788270895FC014B
S11309F00590615070400110D8F7809590958E0F46
S1130A009F1F0895FC016150704001900110D8F7B8
S1130A10809590958E0F9F1F08950F931F93CF93EA
S1130A20DF93182F092FEB018B8181FD09C01FEF84
S1130A300FEF812F902FDF91CF911F910F91089588
S1130A4082FF14C02E813F818C819D812817390734
S1130A503CF4E881F981CF0101969983888310835E
S1130A608E819F8101969F838E83E3CFE885F985EC
S1130A70812F0995892BA1F3DACFFA01AA2728300F
S1130A8051F1203181F1E8946F936E7F6E5F7F4F57
S1130A908F4F9F4FAF4FB1E03ED0B4E03CD0670FD3
S1130AA0781F891F9A1FA11D680F791F8A1F911D26
S1130AB0A11D6A0F711D811D911DA11D20D009F476
S1130AC068943F912AE0269F11243019305D3193B8
S1130AD0DEF6CF010895462F4770405D4193B3E0A1
S1130AE00FD0C9F7F6CF462F4F70405D4A3318F048
S1130AF0495D31FD4052419302D0A9F7EACFB4E0F9
S1130B00A6959795879577956795BA95C9F70097B0
S1130B106105710508959B01AC010A2E0694579551
S1130B20479537952795BA95C9F7620F731F841FA8
S1130B30951FA01D0895DB018F939F930E94CD05FF
S1130B40BF91AF91A29F800D911DA39F900DB29F65
S1130B50900D11240895A1E21A2EAA1BBB1BFD01BE
S1130B600DC0AA1FBB1FEE1FFF1FA217B307E40788
S1130B70F50720F0A21BB30BE40BF50B661F771FE0
S1130B80881F991F1A9469F76095709580959095C0
S1130B909B01AC01BD01CF0108950E940F06A59FE2
S1130BA0900DB49F900DA49F800D911D1124089564
S1130BB02F923F924F925F926F927F928F929F9269
S1130BC0AF92BF92CF92DF92EF92FF920F931F9357
S1130BD0CF93DF93CDB7DEB7CA1BDB0B0FB6F89408
S1130BE0DEBF0FBECDBF09942A88398848885F8448
S1130BF06E847D848C849B84AA84B984C884DF80B9
S1130C00EE80FD800C811B81AA81B981CE0FD11D9C
S1130C100FB6F894DEBF0FBECDBFED010895A29FBD
S1130C20B001B39FC001A39F700D811D1124911DBC
S1130C30B29F700D811D1124911D0895F894FFCF6A
S1130C4068656C6C6F776F726C6441007561727467
S1130C505F72785F737472696E673A20006D696CB5
S1130C606C6973203D20256C752C206D6963726F4F
S10D0C7073203D20256C750A000076
S9030000FC
