:100000000C9434000C9449000C9449000C94490061
:100010000C9449000C9449000C9449000C9449003C
:100020000C9449000C9449000C9449000C9449002C
:100030000C9449000C9449000C9449000C9449001C
:100040000C9449000C9449000C9449000C9449000C
:100050000C9449000C9449000C9449000C944900FC
:100060000C9449000C94490011241FBECFEFD8E036
:10007000DEBFCDBF11E0A0E0B1E0E8E8F1E002C0F2
:1000800005900D92A632B107D9F70E944B000C944F
:10009000C2000C940000E0910001EE23E1F0A1E029
:1000A000B1E090E080E041E050E0ED91FC911197EB
:1000B000208114963C911497BA0101C0660F3A95BD
:1000C000EAF7262B20830196E09100011596E817A8
:1000D000190609F054F763E071E041E050E0C5E033
:1000E000EE2309F44EC0AEEFB0E090E080E0ED9179
:1000F000FC91119710821596ED91FC911697179629
:100100002C9117978A0102C0000F111F2A95E2F760
:1001100000831FEF27EE33E0115020403040E1F71D
:1001200000C000000196E09100012E2F30E01596EE
:1001300082179307E4F22330310594F2EC9FF0012B
:100140001124E750FF4FA581B6811C92A081B18197
:1001500082818A0102C0000F111F8A95E2F70C9379
:100160001FEF27EE33E0115020403040E1F700C090
:10017000000035976E177F0731F7E0910001E1111C
:08018000B2CFFFCFF894FFCFCE
:1001880007240025000124002500002A002B000771
:100198002A002B00062A002B00052A002B00042A1F
:0601A800002B00035000D3
:00000001FF
