S00C000064656D6F2E7372656373
S11300000C943C000C9459000C9459000C94590025
S11300100C9459000C9459000C9459000C945900F8
S11300200C9459000C9459000C9459000C945900E8
S11300300C9459000C9459000C9424010C9459000C
S11300400C9459000C9459000C9459000C945900C8
S11300500C9459000C9459000C9459000C945900B8
S11300600C9459000C9459003132334134353642E2
S1130070373839434530464411241FBECFEFD8E00A
S1130080DEBFCDBF11E0A0E0B1E0E8E5F9E002C0D9
S113009005900D92AA3FB107D9F722E0AAEFB1E08B
S11300A001C01D92AF31B207E1F70E9417040C940E
S11300B0AA040C9400005098519852985398549A5A
S11300C0559A569A579A589A599A5A9A5B9A5C989A
S11300D05D985E985F980895CF93DF9300D000D029
S11300E0CDB7DEB71A8219821B821C8289B1806F58
S11300F080958C838C81882379F18AB180958AB923
S11301008BB180958BB989B18F608B838AB18095CF
S11301108AB98BB180958BB98C8183FF26C083E02B
S11301208C838B8187FD32C08B8186FD27C08B81B8
S113013085FF2FC081E08B838C81EB8190E0880F59
S1130140991F880F991FE80FF92FF11DE859FF4FE8
S1130150E491F0E0FA83E98389819A810F900F900A
S11301600F900F90DF91CF9108958C8182FD09C08B
S11301708C8181FF13C081E08C83D3CF82E08B8399
S1130180DBCF82E08C838B8187FFCECF83E08B83B0
S1130190D3CF8B8184FFD0CF1B82CECF8C8180FFC5
S11301A0C0CF1C82BECF0E946C00E091FA0191E0A6
S11301B09E0F9093FA01F0E0ED5FFD4F80838091F4
S11301C0FA018A3010F01092FA0108958091030226
S11301D030E020E0F901ED5FFD4F9081891309C003
S11301E02F5F3F4F2A303105A9F7082E000C990BD9
S11301F0089590E080E008953091030290E080E05B
S1130200FC01ED5FFD4F208132130AC001968A3054
S11302109105B1F781E090E03111089580E00895EF
S113022080E090E008953091030290E080E0FC01CA
S1130230ED5FFD4F2081321306C001968A3091058F
S1130240B1F73111F0CF08951F920F920FB60F92AC
S113025011242F933F934F935F936F937F938F93C7
S11302609F93AF93BF93EF93FF930E94D300FF91AB
S1130270EF91BF91AF919F918F917F916F915F911A
S11302804F913F912F910F900FBE0F901F90189593
S113029084B5826084BD85B5836085BD89EF87BDE3
S11302A0EEE6F0E080818260808378940895109275
S11302B0BC0094EA9093BC009091BC0097FFFCCFE3
S11302C09091B900987F983011F09031A1F4880F83
S11302D0682B6093BB0084E88093BC008091BC00D1
S11302E087FFFCCF8091B900887F883111F080347A
S11302F021F480E008958AE0089584E108958093CC
S1130300BB0084E88093BC008091BC0087FFFCCFD5
S11303108091B900887F883211F480E0089585E1E6
S1130320089584EC8093BC008091BC0087FFFCCFCF
S11303308091BB00089584E88093BC008091BC0048
S113034087FFFCCF8091BB00089584E98093BC00B3
S113035008951092B90088EF8093B8000895CF9360
S1130360C62F60E00E945701811111C0C093BB00E9
S113037094E89093BC009091BC0097FFFCCF9091BF
S1130380B900987F983229F494E99093BC00CF91F6
S1130390089585E1CF9108950F931F93CF93DF9331
S11303A08B01EA0160E00E94570181111AC0209775
S11303B0A9F0F801C00FD11F24E891919093BB00DC
S11303C02093BC009091BC0097FFFCCF9091B900A2
S11303D0987F983259F4EC17FD0779F794E99093D4
S11303E0BC00DF91CF911F910F91089585E1DF91BA
S11303F0CF911F910F9108950F931F93CF93DF9384
S11304008B01EA0161E00E945701811127C0BE01FE
S113041061507109A9F0F801A8014C0F5D1F41500A
S1130420510924EC2093BC009091BC0097FFFCCFB1
S11304309091BB009193E417F507A1F7060F171FDE
S113044094E89093BC009091BC0097FFFCCF9091EE
S1130450BB00F801908394E99093BC00DF91CF91A5
S11304601F910F910895873148F4E82FF0E0EE0FC3
S1130470FF1FE050FF4F8081918108958EE291E04B
S11304800895FC01683031F0138260E0FC01808142
S11304900C94AF016383FC0180810C94AF010F9332
S11304A01F93CF938C01C62FFC0163816C2B808139
S11304B00E94AF018FE193E00197F1F700C00000C3
S11304C06C2F6460F8018381682B80810E94AF01E6
S11304D08FE193E00197F1F700C00000CB7FF801B2
S11304E063816C2B80810E94AF018FE193E00197BF
S11304F0F1F700C00000CF911F910F9108950F9361
S11305001F93CF93DF938C01D62FC42F607F642B6E
S11305100E944F0280E1D89FB00111246C2BC801C6
S1130520DF91CF911F910F910C944F0240E00C94F6
S11305307F0240E061E00E947F028FE39FE1019728
S1130540F1F700C000000895CF93DF9300D000D0EE
S1130550CDB7DEB7198220E42A8324E12B8324E576
S11305602C83FE01E60FF11D6181640F606840E099
S11305700F900F900F900F90DF91CF910C947F020A
S113058040E062E00E947F028FE39FE10197F1F770
S113059000C000000895FC019581643041F0692F8A
S11305A06B7F6583686040E0CF010C947F02692F04
S11305B064606583686040E0CF010C947F02FC01B5
S11305C09581623041F0692F6D7F6583686040E0FA
S11305D0CF010C947F02692F62606583686040E0FC
S11305E0CF010C947F02FC019581613041F0692FA9
S11305F06E7F6583686040E0CF010C947F02692FB1
S113060061606583686040E0CF010C947F0268619B
S113061040E00C947F02FC019681623041F0692F26
S11306206D7F6683646040E0CF010C947F02692F84
S113063062606683646040E0CF010C947F02FC0139
S11306409681613041F0692F6E7F6683646040E07B
S1130650CF010C947F02692F61606683646040E07F
S1130660CF010C947F02EF92FF920F931F93CF93CD
S1130670DF938C017A016770660F660F660F606402
S113068040E00E947F02E70188E0E80EF11C6991D6
S113069041E0C8010E947F02CE15DF05C1F7DF915A
S11306A0CF911F910F91FF90EF900895EF92FF92D9
S11306B00F931F93CF93FB016081662371F08F0129
S11306C07C01C0E041E0C7010E947F02CF5FF801D6
S11306D0EC0FF11D60816111F5CFCF911F910F9146
S11306E0FF90EF900895CF93DF93CDB7DEB72E97A9
S11306F00FB6F894DEBF0FBECDBF888769874A87DF
S11307002C8786E08D8782E08E87423008F480C093
S113071028602C872FEF80E792E0215080409040A2
S1130720E1F700C0000060E3CE0108960E944F028A
S11307308FE19EE40197F1F700C0000060E3CE0171
S113074008960E944F028FE19EE40197F1F700C0E2
S1130750000060E3CE0108960E944F0287E592E014
S11307600197F1F700C0000060E2CE0108960E94F4
S11307704F0287E592E00197F1F700C000006C8515
S1130780606240E0CE0108960E947F026D856B7F17
S11307906D87686040E0CE0108960E947F0240E0C9
S11307A061E0CE0108960E947F028FE39FE10197EA
S11307B0F1F700C000006E85646040E0CE01089649
S11307C00E947F0240E062E0CE0108960E947F0210
S11307D08FE39FE10197F1F700C0000087E0FE017D
S11307E03896DE01119601900D928A95E1F72981E0
S11307F03A814B815C816D817E818F8190E02E9660
S11308000FB6F894DEBF0FBECDBFDF91CF91089530
S1130810222309F47FCF413009F07CCF24602C8758
S113082079CFFC012381622B80810C94AF0180E895
S11308309AE10E94A90120E042E060E18FE30E9476
S113084073032093FB013093FC014093FD0150930B
S1130850FE016093FF01709300028093010264E043
S11308608BEF91E00E94CB028BEF91E00E94990202
S113087068E08BEF91E00E9441028BEF91E00E94CF
S1130880C00284B5826084BD85B5836085BD89EF6F
S113089087BD80916E00826080936E0078940E9480
S11308A05B0050911D023091030290E080E0FC0156
S11308B0ED5FFD4F208132133CC001968A309105D3
S11308C0B1F7309302024091030290E080E0FC0112
S11308D0ED5FFD4F2081421320C001968A309105BF
S11308E0B1F74423D1F05317B1F030931D028BEFCD
S11308F091E00E94C00241E050E062E072E08DE0CD
S113090092E00E949B046DE072E08BEF91E00E9404
S1130910560330911D02532FC6CF5317E1F3309382
S11309201D028BEF91E00E94990230911D02532F1A
S1130930BACF30E0C6CFFB01DC014150504048F053
S113094001900D920020C9F701C01D924150504002
S10B0950E0F70895F894FFCFCD
S113095846012E012E012E012E012E012E012E01FB
S11309682E012E014E012E012E012E012E012E01E3
S11309782E012E012E012E017B01AB01D301556EF0
S11309886B6E6F776E20693263206572726F7220A6
S1130998636F64652E00693263206F6B2E00536C9D
S11309A86176652064657669636520646964206E90
S11309B86F7420616363657074207374617274204A
S11309C8636F6E646974696F6E2E00536C6176652B
S11309D82064657669636520646964206E6F742099
S11309E861636B6E6F776C656467652072656164BB
S11309F8206F722077726974652E00536C61766576
S1130A082064657669636520646964206E6F742068
S1130A1861636B6E6F776C65646765207772697460
S1130A28652E00536C61766520646576696365207C
S1130A38646964206E6F742061636B6E6F776C6594
S10D0A4864676520726561642E0086
S9030000FC
