S00C000064656D6F2E7372656373
S11300000C9434000C9451000C9451000C94510045
S11300100C9451000C9451000C9451000C94510018
S11300200C9451000C9451000C9451000C94510008
S11300300C9451000C9451000C9451000C945100F8
S11300400C9451000C9451000C9451000C945100E8
S11300500C9451000C9451000C9451000C945100D8
S11300600C9451000C94510011241FBECFEFD8E022
S1130070DEBFCDBF11E0A0E0B1E0ECE6F6E002C0E7
S113008005900D92AA3FB107D9F721E0AAEFB1E09C
S113009001C01D92AB3FB207E1F70E94F9020C9434
S11300A034030C940000FC01683031F0138260E0EA
S11300B0FC0180810C9467026383FC0180810C94B1
S11300C06702089508950F931F93CF938C01C62F51
S11300D0FC0163816C2B80810E946702FAE0FA952F
S11300E0F1F700C06C2F6460F8018381682B808174
S11300F00E946702FAE0FA95F1F700C0CB7FF8019D
S113010063816C2B80810E946702FAE0FA95F1F713
S113011000C0CF911F910F9108950F931F93CF9318
S1130120DF938C01D62FC42F607F642B0E94630061
S113013080E1D89FB00111246C2BC801DF91CF91CD
S11301401F910F910C94630040E00C948D0040E0EB
S113015061E00E948D008FE39FE10197F1F700C0F9
S113016000000895CF93DF9300D000D0CDB7DEB761
S1130170198220E42A8324E12B8324E52C83FE01C5
S1130180E60FF11D6181640F606840E00F900F90ED
S11301900F900F90DF91CF910C948D0040E062E0BE
S11301A00E948D008FE39FE10197F1F700C00000EA
S11301B00895FC019581643041F0692F6B7F65835C
S11301C0686040E0CF010C948D00692F6460658302
S11301D0686040E0CF010C948D00FC019581623091
S11301E041F0692F6D7F6583686040E0CF010C9416
S11301F08D00692F62606583686040E0CF010C94D4
S11302008D00FC019581613041F0692F6E7F65831B
S1130210686040E0CF010C948D00692F61606583B4
S1130220686040E0CF010C948D00686140E00C945C
S11302308D00FC019681623041F0692F6D7F6683E9
S1130240646040E0CF010C948D00692F6260668386
S1130250646040E0CF010C948D00FC019681613014
S113026041F0692F6E7F6683646040E0CF010C9497
S11302708D00692F61606683646040E0CF010C9457
S11302808D00EF92FF920F931F93CF93DF938C0116
S11302907A016770660F660F660F606440E00E9423
S11302A08D00E70188E0E80EF11C699141E0C80186
S11302B00E948D00CE15DF05C1F7DF91CF911F910C
S11302C00F91FF90EF900895CF93DF93CDB7DEB7F2
S11302D02E970FB6F894DEBF0FBECDBF888769870F
S11302E04A872C8786E08D8782E08E87423008F427
S11302F080C028602C872FEF80E792E02150804057
S11303009040E1F700C0000060E3CE0108960E942F
S113031063008FE19EE40197F1F700C0000060E301
S1130320CE0108960E9463008FE19EE40197F1F7E5
S113033000C0000060E3CE0108960E94630087E5D8
S113034092E00197F1F700C0000060E2CE01089648
S11303500E94630087E592E00197F1F700C0000076
S11303606C85606240E0CE0108960E948D006D8528
S11303706B7F6D87686040E0CE0108960E948D0017
S113038040E061E0CE0108960E948D008FE39FE17A
S11303900197F1F700C000006E85646040E0CE0173
S11303A008960E948D0040E062E0CE0108960E940B
S11303B08D008FE39FE10197F1F700C0000087E013
S11303C0FE013896DE01119601900D928A95E1F7AF
S11303D029813A814B815C816D817E818F8190E09E
S11303E02E960FB6F894DEBF0FBECDBFDF91CF912E
S11303F00895222309F47FCF413009F07CCF246093
S11304002C8779CFFC012381622B80810C946702B5
S1130410549A559A569A5C985D985E9808951092ED
S1130420BC0094EA9093BC009091BC0097FFFCCF71
S11304309091B900987F983011F09031A1F4880F11
S1130440682B6093BB0084E88093BC008091BC005F
S113045087FFFCCF8091B900887F883111F0803408
S113046021F480E008958AE0089584E1089580935A
S1130470BB0084E88093BC008091BC0087FFFCCF64
S11304808091B900887F883211F480E0089585E175
S1130490089584EC8093BC008091BC0087FFFCCF5E
S11304A08091BB00089584E88093BC008091BC00D7
S11304B087FFFCCF8091BB00089584E98093BC0042
S11304C008951092B90088EF8093B8000895CF93EF
S11304D0C62F60E00E940F02811111C0C093BB00BF
S11304E094E89093BC009091BC0097FFFCCF90914E
S11304F0B900987F983229F494E99093BC00CF9185
S1130500089585E1CF9108950F931F93CF93DF93BF
S11305108B01EA0160E00E940F0281111AC020974A
S1130520A9F0F801C00FD11F24E891919093BB006A
S11305302093BC009091BC0097FFFCCF9091B90030
S1130540987F983259F4EC17FD0779F794E9909362
S1130550BC00DF91CF911F910F91089585E1DF9148
S1130560CF911F910F9108950F931F93CF93DF9312
S11305708B01EA0161E00E940F02811127C0BE01D4
S113058061507109A9F0F801A8014C0F5D1F415099
S1130590510924EC2093BC009091BC0097FFFCCF40
S11305A09091BB009193E417F507A1F7060F171F6D
S11305B094E89093BC009091BC0097FFFCCF90917D
S11305C0BB00F801908394E99093BC00DF91CF9134
S11305D01F910F910895873148F4E82FF0E0EE0F52
S11305E0FF1FE050FF4F8081918108958EE291E0DA
S11305F00895CF93DF9300D000D000D01F92CDB7E1
S1130600DEB70E94080280E89AE10E94610220E0BD
S113061042E060E18FE30E946401122F29833A8350
S11306204B835C836D837E838F8368E0812F0E947C
S113063067022FEF87EA91E6215080409040E1F76E
S113064000C0000060E0812F0E9467022FEF87EA5C
S113065091E6215080409040E1F700C0000068E03E
S10F0660812F0E946702FFCFF894FFCFA7
S113066C46012E012E012E012E012E012E012E01EA
S113067C2E012E014E012E012E012E012E012E01D2
S113068C2E012E012E012E017B01AB01D301556EDF
S113069C6B6E6F776E20693263206572726F722095
S11306AC636F64652E00693263206F6B2E00536C8C
S11306BC6176652064657669636520646964206E7F
S11306CC6F74206163636570742073746172742039
S11306DC636F6E646974696F6E2E00536C6176651A
S11306EC2064657669636520646964206E6F742088
S11306FC61636B6E6F776C656467652072656164AA
S113070C206F722077726974652E00536C61766564
S113071C2064657669636520646964206E6F742057
S113072C61636B6E6F776C6564676520777269744F
S113073C652E00536C61766520646576696365206B
S113074C646964206E6F742061636B6E6F776C6583
S10D075C64676520726561642E0075
S9030000FC
