S00C000064656D6F2E7372656373
S11300000C9434000C9451000C9451000C94510045
S11300100C9451000C9451000C9451000C94510018
S11300200C9451000C9451000C9451000C94510008
S11300300C9451000C9451000C9451000C945100F8
S11300400C9451000C9451000C9451000C945100E8
S11300500C9451000C9451000C9451000C945100D8
S11300600C9451000C94510011241FBECFEFD8E022
S1130070DEBFCDBF12E0A0E0B1E0E8EAF8E002C0E4
S113008005900D92AC31B107D9F722E0ACE1B2E0B2
S113009001C01D92AD31B207E1F70E941A030C941E
S11300A052040C940000FC01683031F0138260E0CB
S11300B0FC0180810C9488026383FC0180810C9490
S11300C088020F931F93CF938C01C62FFC01638189
S11300D06C2B80810E9488028FE193E00197F1F7F5
S11300E000C000006C2F6460F8018381682B80815C
S11300F00E9488028FE193E00197F1F700C00000AD
S1130100CB7FF80163816C2B80810E9488028FE190
S113011093E00197F1F700C00000CF911F910F9178
S113012008950F931F93CF93DF938C01D62FC42F81
S1130130607F642B0E94610080E1D89FB00111248C
S11301406C2BC801DF91CF911F910F910C9461002A
S113015040E00C94910040E061E00E9491008FE344
S11301609FE10197F1F700C000000895CF93DF935A
S113017000D000D0CDB7DEB7198220E42A8324E171
S11301802B8324E52C83FE01E60FF11D6181640FAE
S1130190606840E00F900F900F900F90DF91CF9127
S11301A00C94910040E062E00E9491008FE39FE193
S11301B00197F1F700C000000895FC0195816430B7
S11301C041F0692F6B7F6583686040E0CF010C9438
S11301D09100692F64606583686040E0CF010C94EE
S11301E09100FC019581623041F0692F6D7F658338
S11301F0686040E0CF010C949100692F62606583D0
S1130200686040E0CF010C949100FC01958161305D
S113021041F0692F6E7F6583686040E0CF010C94E4
S11302209100692F61606583686040E0CF010C94A0
S11302309100686140E00C949100FC019681623069
S113024041F0692F6D7F6683646040E0CF010C94B8
S11302509100692F62606683646040E0CF010C9472
S11302609100FC019681613041F0692F6E7F6683B5
S1130270646040E0CF010C949100692F6160668353
S1130280646040E0CF010C949100EF92FF920F93D1
S11302901F93CF93DF938C017A016770660F660F0B
S11302A0660F606440E00E949100E70188E0E80E78
S11302B0F11C699141E0C8010E949100CE15DF054F
S11302C0C1F7DF91CF911F910F91FF90EF900895A7
S11302D0EF92FF920F931F93CF93FB0160816623EC
S11302E071F08F017C01C0E041E0C7010E949100E0
S11302F0CF5FF801EC0FF11D60816111F5CFCF9153
S11303001F910F91FF90EF900895CF93DF93CDB796
S1130310DEB72E970FB6F894DEBF0FBECDBF888729
S113032069874A872C8786E08D8782E08E874230F2
S113033008F480C028602C872FEF80E792E02150DA
S113034080409040E1F700C0000060E3CE010896D1
S11303500E9461008FE19EE40197F1F700C0000064
S113036060E3CE0108960E9461008FE19EE401974C
S1130370F1F700C0000060E3CE0108960E9461001E
S113038087E592E00197F1F700C0000060E2CE013A
S113039008960E94610087E592E00197F1F700C09A
S11303A000006C85606240E0CE0108960E949100D6
S11303B06D856B7F6D87686040E0CE0108960E9472
S11303C0910040E061E0CE0108960E9491008FE325
S11303D09FE10197F1F700C000006E85646040E082
S11303E0CE0108960E94910040E062E0CE0108969A
S11303F00E9491008FE39FE10197F1F700C0000094
S113040087E0FE013896DE01119601900D928A95DF
S1130410E1F729813A814B815C816D817E818F81F5
S113042090E02E960FB6F894DEBF0FBECDBFDF91DD
S1130430CF910895222309F47FCF413009F07CCF76
S113044024602C8779CFFC012381622B80810C945A
S11304508802549A559A569A5C985D985E980895C5
S11304601092BC0094EA9093BC009091BC0097FF5A
S1130470FCCF9091B900987F983011F09031A1F49D
S1130480880F682B6093BB0084E88093BC00809144
S1130490BC0087FFFCCF8091B900887F883111F0C0
S11304A0803421F480E008958AE0089584E1089579
S11304B08093BB0084E88093BC008091BC0087FFDC
S11304C0FCCF8091B900887F883211F480E00895D0
S11304D085E1089584EC8093BC008091BC0087FF83
S11304E0FCCF8091BB00089584E88093BC00809188
S11304F0BC0087FFFCCF8091BB00089584E9809302
S1130500BC0008951092B90088EF8093B800089554
S1130510CF93C62F60E00E943002811111C0C093B6
S1130520BB0094E89093BC009091BC0097FFFCCF73
S11305309091B900987F983229F494E99093BC0083
S1130540CF91089585E1CF9108950F931F93CF9391
S1130550DF938B01EA0160E00E94300281111AC02E
S11305602097A9F0F801C00FD11F24E8919190932E
S1130570BB002093BC009091BC0097FFFCCF9091EE
S1130580B900987F983259F4EC17FD0779F794E98C
S11305909093BC00DF91CF911F910F91089585E155
S11305A0DF91CF911F910F9108950F931F93CF93D4
S11305B0DF938B01EA0161E00E943002811127C0C0
S11305C0BE0161507109A9F0F801A8014C0F5D1F2B
S11305D04150510924EC2093BC009091BC0097FF3A
S11305E0FCCF9091BB009193E417F507A1F7060F98
S11305F0171F94E89093BC009091BC0097FFFCCF28
S11306009091BB00F801908394E99093BC00DF9132
S1130610CF911F910F910895873148F4E82FF0E0AE
S1130620EE0FFF1FE050FF4F80819181089580E518
S113063091E00895CF93DF93CDB7DEB767970FB6F8
S1130640F894DEBF0FBECDBF0E94290280E89AE174
S11306500E94820220E042E060E18FE30E94850173
S1130660298B3A8B4B8B5C8B6D8B7E8B8F8B2FEF17
S113067083ED90E3215080409040E1F700C00000FA
S113068040E061E0CE0141960E9491008FE39FE13A
S11306900197F1F700C000009FEF29E688E191502F
S11306A020408040E1F700C000001C8A60E0898996
S11306B00E9488029FEF29E688E191502040804003
S11306C0E1F700C0000088E08C8B68E089890E9413
S11306D088029FEF29E688E1915020408040E1F7AD
S11306E000C000006E89962F94609E8B6C6040E081
S11306F0CE0141960E94910040E062E0CE01419615
S11307000E9491008FE39FE10197F1F700C0000080
S11307106E89962F92609E8B6A6040E0CE0141966E
S11307200E9491006E89962F91609E8B696040E0D3
S1130730CE0141960E9491009FEF29E688E19150F5
S113074020408040E1F700C0000080E1EEE2F1E0EB
S1130750DE01119601900D928A95E1F76981662375
S113076081F010E041E0CE0141960E9491001F5FAC
S1130770E1E0F0E0EC0FFD1FE10FF11D608161117C
S1130780F1CF9FEF29E688E1915020408040E1F7C6
S113079000C0000040E060ECCE0141960E94910050
S11307A080E1EFE3F1E0DE01119601900D928A956C
S11307B0E1F76981662381F010E041E0CE014196C2
S11307C00E9491001F5FE1E0F0E0EC0FFD1FE10FDC
S11307D0F11D60816111F1CF80E1EEE2F1E0DE0113
S11307E0119601900D928A95E1F76981662381F053
S11307F010E041E0CE0141960E9491001F5FE1E0CC
S1130800F0E0EC0FFD1FE10FF11D60816111F1CFEC
S11308109FEF23ED80E3915020408040E1F700C03A
S1130820000040E060ECCE0141960E94910080E11E
S1130830EFE3F1E0DE01119601900D928A95E1F764
S11308406981662381F010E041E0CE0141960E9467
S113085091001F5FE1E0F0E0EC0FFD1FE10FF11DDF
S113086060816111F1CF9FEF23ED80E3915020402F
S11308708040E1F700C0000040E061E0CE01419615
S11308800E9491008FE39FE10197F1F700C00000FF
S11308909FEF23ED80E3915020408040E1F700C0BA
S10B08A000009ACFF894FFCF89
S11308A8680150015001500150015001500150019C
S11308B85001500170015001500150015001500184
S11308C850015001500150019D01CD01F5014865C9
S11308D86C6C6F20776F726C6420693263300048E7
S11308E8656C6C6F20776F726C64206932633100B9
S11308F8556E6B6E6F776E20693263206572726F06
S11309087220636F64652E00693263206F6B2E005A
S1130918536C6176652064657669636520646964EF
S1130928206E6F74206163636570742073746172E0
S11309387420636F6E646974696F6E2E00536C6102
S113094876652064657669636520646964206E6FE2
S1130958742061636B6E6F776C656467652072657C
S11309686164206F722077726974652E00536C611C
S113097876652064657669636520646964206E6FB2
S1130988742061636B6E6F776C656467652077723A
S11309986974652E00536C617665206465766963B5
S11309A86520646964206E6F742061636B6E6F7771
S10F09B86C6564676520726561642E0044
S9030000FC
