:100000000C9434000C9451000C9451000C94510049
:100010000C9451000C9451000C9451000C9451001C
:100020000C9451000C9451000C9451000C9451000C
:100030000C9451000C9451000C9451000C945100FC
:100040000C9451000C9451000C9451000C945100EC
:100050000C9451000C9451000C9451000C945100DC
:100060000C9451000C94510011241FBECFEFD8E026
:10007000DEBFCDBF11E0A0E0B1E0E0ECF2E002C0F5
:1000800005900D92AA3FB107D9F721E0AAEFB1E0A0
:1000900001C01D92AB3FB207E1F70E9446010C94EC
:1000A0005E010C94000008950895549A559A569A4A
:1000B0005C985D985E9808951092BC0094EA9093C5
:1000C000BC009091BC0097FFFCCF9091B900987F45
:1000D000983011F09031A1F4880F682B6093BB0029
:1000E00084E88093BC008091BC0087FFFCCF8091A6
:1000F000B900887F883111F0803421F480E00895C0
:100100008AE0089584E108958093BB0084E8809399
:10011000BC008091BC0087FFFCCF8091B900887F34
:10012000883211F480E0089585E1089584EC80938D
:10013000BC008091BC0087FFFCCF8091BB0008957C
:1001400084E88093BC008091BC0087FFFCCF809145
:10015000BB00089584E98093BC0008951092B90013
:1001600088EF8093B8000895CF93C62F60E00E9477
:100170005C00811111C0C093BB0094E89093BC0057
:100180009091BC0097FFFCCF9091B900987F983276
:1001900029F494E99093BC00CF91089585E1CF9123
:1001A00008950F931F93CF93DF938B01EA0160E0D3
:1001B0000E945C0081111AC02097A9F0F801C00FBD
:1001C000D11F24E891919093BB002093BC009091A3
:1001D000BC0097FFFCCF9091B900987F983259F4FA
:1001E000EC17FD0779F794E99093BC00DF91CF916C
:1001F0001F910F91089585E1DF91CF911F910F918C
:1002000008950F931F93CF93DF938B01EA0161E071
:100210000E945C00811127C0BE0161507109A9F0E4
:10022000F801A8014C0F5D1F4150510924EC2093A7
:10023000BC009091BC0097FFFCCF9091BB009193C4
:10024000E417F507A1F7060F171F94E89093BC0079
:100250009091BC0097FFFCCF9091BB00F801908378
:1002600094E99093BC00DF91CF911F910F91089575
:10027000873148F4E82FF0E0EE0FFF1FE050FF4F0A
:100280008081918108958EE291E008950E94550049
:1002900080E89AE10E94AE0068E08FE30E94B4001B
:1002A0002FEF83E294EF215080409040E1F700C0AF
:1002B000000060E08FE30E94B400FFCFF894FFCF0E
:1002C00046012E012E012E012E012E012E012E019E
:1002D0002E012E014E012E012E012E012E012E0186
:1002E0002E012E012E012E017B01AB01D301556E93
:1002F0006B6E6F776E20693263206572726F722049
:10030000636F64652E00693263206F6B2E00536C3F
:100310006176652064657669636520646964206E32
:100320006F742061636365707420737461727420EC
:10033000636F6E646974696F6E2E00536C617665CD
:100340002064657669636520646964206E6F74203B
:1003500061636B6E6F776C6564676520726561645D
:10036000206F722077726974652E00536C61766518
:100370002064657669636520646964206E6F74200B
:1003800061636B6E6F776C65646765207772697403
:10039000652E00536C61766520646576696365201F
:1003A000646964206E6F742061636B6E6F776C6537
:0A03B00064676520726561642E0029
:00000001FF
