:100000000C9434000C9451000C9451000C94510049
:100010000C9451000C9451000C9451000C9451001C
:100020000C9451000C949D000C9451000C945100C0
:100030000C9451000C9473000C9451000C945100DA
:100040000C9453000C9451000C9451000C945100EA
:100050000C9451000C9451000C9451000C945100DC
:100060000C9451000C94510011241FBECFEFD8E026
:10007000DEBFCDBF11E0A0E0B1E0E0EAF2E002C0F7
:1000800005900D92AE31B107D9F721E0AEE1B1E0B4
:1000900001C01D92A532B207E1F70E9402010C9443
:1000A0004E010C9400001F920F920FB60F92112474
:1000B0008F9380910401815071F48CEF809304013F
:1000C000809124018160809324018F910F900FBE55
:1000D0000F901F901895809304018F910F900FBE81
:1000E0000F901F9018951F920F920FB60F92112428
:1000F0008F939F938091020190910301019791F456
:100100008FE390E09093030180930201809124019A
:100110008260809324019F918F910F900FBE0F906A
:100120001F90189590930301809302019F918F91E6
:100130000F900FBE0F901F9018951F920F920FB641
:100140000F9211248F939F93809100019091010150
:10015000019791F48CEF90E090930101809300015E
:10016000809124018460809324019F918F910F904E
:100170000FBE0F901F90189590930101809300017E
:100180009F918F910F900FBE0F901F9018955298CE
:100190005A9A559A569A579A209A84B5816084BD86
:1001A00084B5806A84BD85B5816085BDEEE6F0E0EA
:1001B000808181608083E0EBF0E0808181608083DA
:1001C000E1EBF0E0808181608083E0E7F0E0808116
:1001D00081608083E0E8F0E08081836080838081BB
:1001E00080688083E1E8F0E0808181608083EFE6D1
:1001F000F0E0808181608083789480E487BD8EEF19
:1002000088BD08950E94C70021E0A895809124012F
:1002100080FF1CC080911E0190911F010196909358
:100220001F0180931E0180911E0190911F018C3748
:10023000910539F48BB180588BB910921F0110923F
:100240001E01809124018E7F8093240180912401DE
:1002500082FF1CC08091220190912301019690930E
:1002600023018093220180912201909123018C37F8
:10027000910539F485B1822785B910922301109236
:100280002201809124018B7F8093240183B78160B8
:1002900083BF889583B78E7F83BFB7CFF894FFCF96
:1002A000FC003F00FC2A002B000224002500002A4D
:0E02B000002B00072A002B00062A002B000559
:00000001FF
