S00C000064656D6F2E7372656373
S11300000C9434000C9446000C9446000C94460066
S11300100C9446000C9446000C9446000C94460044
S11300200C9446000C9446000C9446000C94460034
S11300300C9446000C9446000C9446000C94460024
S11300400C9460000C9446000C9446000C944600FA
S11300500C9446000C9446000C9446000C94460004
S11300600C9446000C94460011241FBECFEFD8E038
S1130070DEBFCDBF21E0A0E0B1E001C01D92A430FD
S1130080B207E1F70E94A3000C94B9000C9400009D
S113009030910101832790910301209102012927C6
S11300A0909598239093030128232093020180952F
S11300B0892B822B809538273093010190E0089595
S11300C01F920F920FB60F9211242F933F934F93C9
S11300D05F938F939F9356B140910101952F94277D
S11300E020910301809102018227209529232093E6
S11300F00301392F382330930201892F8095822BF5
S1130100832B809548274093010180FF02C050FF54
S113011014C081FF07C051FD05C0809100018150CA
S1130120809300019F918F915F914F913F912F9107
S11301300F900FBE0F901F901895909100019F5F34
S113014090930001E6CF8FEF8AB98BB987B18C7F8A
S113015087B988B1836088B985B5836085BD80918E
S11301606E00816080936E007894809100018BB959
S1090170FCCFF894FFCF60
S9030000FC
