S00C000064656D6F2E7372656373
S11300000C94D0000C94F1000C94F1000C94F100C9
S11300100C94F1000C94F1000C94F1000C94F10098
S11300200C94F1000C94F1000C94F1000C94F10088
S11300300C94F1000C9469010C94F1000C94F100FF
S11300400C94F1000C94F1000C94B7010C94F100A1
S11300500C94F1000C9493010C94F1000C94F100B5
S11300600C94F1000C94F1000A7A7A7A7A2E2E2EEE
S1130070207A7A7A2E2E2E000A57656C636F6D658E
S11300802061742073657269616C20636F6E747291
S11300906F6C2C2074797065202B2F2D20746F20A9
S11300A061646A7573742C206F7220302F31207450
S11300B06F207475726E206F6E2F6F66660A746897
S11300C065204C45442C207120746F20717569742F
S11300D02073657269616C206D6F64652C207220D9
S11300E0746F2064656D6F6E7374726174652061E2
S11300F0207761746368646F672072657365740A3E
S1130100000A5468616E6B20796F7520666F7220E7
S11301107573696E672073657269616C206D6F64B5
S1130120652E2020476F6F642D627965210A005B7C
S1130130454550524F4D20757064617465645D206F
S1130140000A48656C6C6F2C2074686973206973AD
S113015020746865206176722D6763632F6C696211
S1130160632064656D6F2072756E6E696E67206FB3
S11301706E20616E20756E6B6E6F776E20415652E5
S11301800A000A4F6F6F70732C20746865207761C2
S1130190746368646F6720626974206D6521000070
S11301A011241FBECFEFD8E0DEBFCDBF84B780934C
S11301B00A0114BE11E0A0E0B1E0E2EDF6E002C0F5
S11301C005900D92A230B107D9F721E0A2E0B1E089
S11301D001C01D92AA30B207E1F70E94D2010C942B
S11301E067030C940000FC012491222369F03DE094
S11301F02A3059F09091C00095FFFCCF2093C6009F
S1130200319624912111F4CF08958091C00085FF87
S1130210FCCF3093C600EECFCF93DF93CDB7DEB7DC
S113022028970FB6F894DEBF0FBECDBF893E23E0FA
S1130230920714F088EE93E097FF02C090E080E00C
S113024020910501309106012817390791F1909307
S113025006018093050190938900809388006AE0E9
S113026070E00E94E102CB014AE0BE016F5F7F4F64
S11302700E9409038981882379F0FE0131962DE0DB
S11302808A3001F191918091C00085FFFCCF909359
S1130290C60080818111F4CF8091C00085FFFCCF1E
S11302A080E28093C6008CE291E0909303018093F6
S11302B0020128960FB6F894DEBF0FBECDBFDF91C2
S11302C0CF9108958091C00085FFFCCF2093C60094
S11302D0D9CF1F920F920FB60F9211248F939F9331
S11302E08091000190910101019791F48EE490E0D6
S11302F090930101809300018091090181608093B2
S113030009019F918F910F900FBE0F901F90189528
S113031090930101809300019F918F910F900FBEE4
S11303200F901F9018951F920F920FB60F921124E1
S11303308F939F93EF93FF9380917800909179002E
S11303409093080180930701EAE7F0E08081877FBA
S1130350808380910901826080930901FF91EF916C
S11303609F918F910F900FBE0F901F9018951F9221
S11303700F920FB60F9211248F939F939091C60002
S11303808091C00084FD07C090930401809109010D
S11303908460809309019F918F910F900FBE0F90FD
S11303A01F90189593E89093800081E080938100DA
S11303B010928900109288002CE12BB920EC2AB904
S11303C0219A22E02093C00028E92093C1002FEC59
S11303D02093C40090937A0080936F00789488E10E
S11303E09FE00FB6F894A895809360000FBE909399
S11303F0600080E090E00E943E038F3F980741F048
S1130400909306018093050190938900809388005E
S113041080910A0183FDD0C081E491E00E94F30041
S1130420D0E0C0E000E411E0A8958091090180FFCC
S113043030C0809109018E7F809309018BB18027A0
S11304408BB9DF5FD53009F46DC0D43611F45F9AEF
S1130450D0E0CC2309F469C0C13009F06FC04C99D5
S11304606FC080917A00886080937A0080917A00CE
S1130470806480937A008091020190910301009737
S113048041F001979093030180930201892B09F4B1
S11304905FC08091090181FF0BC0809109018D7FAC
S11304A08093090180910701909108010E940C0139
S11304B08091090182FF2EC0809109018B7F809376
S11304C0090180910401813709F43CC0C23021F054
S11304D088E790E00E94F30080910401803309F4DE
S11304E04CC05CF0813309F442C0823709F03DC04E
S11304F088E690E00E94F300FFCF8B3209F443C0FA
S11305008D3299F580910501909106010A970E9418
S11305100C01C2E083B7816083BF889583B78E7F67
S113052083BF82CF5F98C11197CF4A9B3DC04B9B3D
S113053033C0C9B1C295C170C1279DCFC2E09BCF62
S1130540C0E099CF81E091E00E94F300C0E0E2CFE7
S1130550609105017091060180E090E00E944403DF
S11305608FE291E00E94F30094CFC2E0D3CF88EEF3
S113057093E00E940C01C2E0CDCF90E080E00E94A5
S11305800C01C2E0C7CF80910501909106010A9643
S11305900E940C01C2E0BECF80910501909106013A
S11305A00A960E940C0167CF809105019091060183
S11305B00A970E940C015FCF82E891E00E94F30049
S11305C02BCF97FB072E16F4009407D077FD09D0A4
S11305D00E94F50207FC05D03EF4909581959F4F4B
S11305E00895709561957F4F0895AA1BBB1B51E137
S11305F007C0AA1FBB1FA617B70710F0A61BB70B8F
S1130600881F991F5A95A9F780959095BC01CD0133
S11306100895BB274A3031F4992322F4BDE2909522
S113062081959F4F0C941503BB27FB015527AA27DF
S1130630880F991FAA1FA41710F0A41B839550516B
S1130640B9F7A05DAA3308F0A95DA193009779F7E3
S1130650B111B1931192CB010C942E03DC01FC0176
S1130660672F71917723E1F7329704C07C916D93E2
S113067070836291AE17BF07C8F30895A8E1B0E094
S113068042E050E00C944B030E945903272F0C9432
S11306905A03DC01CB01FC01F999FECF06C0F2BD7F
S11306A0E1BDF89A319600B40D9241505040B8F72C
S11306B00895262FF999FECF1FBA92BD81BD20BDA2
S11306C00FB6F894FA9AF99A0FBE01960895F89421
S10506D0FFCF56
S10506D24E00D4
S9030000FC
